:10000000B6C3D0C3CFC3CEC3CDC3CCC3CBC3CAC387
:10001000C9C3C8C3C7C329C5C5C3C4C3C3C3C2C337
:10002000C1C3C0C3BFC3BEC3BDC3BCC3BBC3BAC3CC
:10003000B9C3B8C351C44EC44DC44CC44BC44AC464
:100040001FC448C447C446C4FBC30AC443C442C413
:1000500041C439C43FC424C428C43CC43BC42CC4D8
:100060006E616E00696E660000407A10F35A00A05F
:10007000724E18090010A5D4E80000E87648170071
:1000800000E40B54020000CA9A3B000000E1F505B1
:10009000000080969800000040420F000000A086FB
:1000A00001000000102700000000E803000000002D
:1000B0006400000000000A000000000001000000D1
:1000C00000002C76D888DC674F0823DFC1DFAE59EB
:1000D000E1B1B796E5E3E453C63AE651997696E87E
:1000E000E6C28426EB898C9B62ED407C6FFCEFBC02
:1000F0009C9F40F2BAA56FA5F490055A2AF75C932D
:100100006B6CF9676DC11BFCE0E40D47FEF520E662
:10011000B500D0ED902E0300943577050080841E45
:10012000080000204E0A000000C80C333333330FA0
:10013000986E12831141EF8D2114893BE65516CF3D
:10014000FEE6DB18D1844B381BF77C1D901DA4BB49
:10015000E424203284725E228100C9F124ECA1E5FE
:100160003D276364696E6F70737578585B00808398
:1001700086898C8F9295989C9FA2A5A8ABAEB0B3B0
:10018000B6B9BCBFC1C4C7C9CCCED1D3D5D8DADCCF
:10019000DEE0E2E4E6E8EAECEDEFF0F2F3F5F6F7A4
:1001A000F8F9FAFBFCFCFDFEFEFFFFFFFFFFFFFF7F
:1001B000FFFFFFFFFEFEFDFCFCFBFAF9F8F7F6F58A
:1001C000F3F2F0EFEDECEAE8E6E4E2E0DEDCDAD8C8
:1001D000D5D3D1CECCC9C7C4C1BFBCB9B6B3B0AEFC
:1001E000ABA8A5A29F9C9895928F8C898683807CD2
:1001F000797673706D6A6763605D5A5754514F4CDE
:10020000494643403E3B383633312E2C2A2725239E
:10021000211F1D1B1917151312100F0D0C0A0908A9
:1002200007060504030302010100000000000000AE
:100230000000000001010203030405060708090A83
:100240000C0D0F1012131517191B1D1F2123252725
:100250002A2C2E313336383B3E404346494C4F51D1
:1002600054575A5D6063676A6D707376797C8083DA
:1002700086898C8F9295989C9FA2A5A8ABAEB0B3AF
:10028000B6B9BCBFC1C4C7C9CCCED1D3D5D8DADCCE
:10029000DEE0E2E4E6E8EAECEDEFF0F2F3F5F6F7A3
:1002A000F8F9FAFBFCFCFDFEFEFFFFFFFFFFFFFF7E
:1002B000FFFFFFFFFEFEFDFCFCFBFAF9F8F7F6F589
:1002C000F3F2F0EFEDECEAE8E6E4E2E0DEDCDAD8C7
:1002D000D5D3D1CECCC9C7C4C1BFBCB9B6B3B0AEFB
:1002E000ABA8A5A29F9C9895928F8C8986838083CA
:1002F00086898C8F9295989C9FA2A5A8ABAEB0B32F
:10030000B6B9BCBFC1C4C7C9CCCED1D3D5D8DADC4D
:10031000DEE0E2E4E6E8EAECEDEFF0F2F3F5F6F722
:10032000F8F9FAFBFCFCFDFEFEFFFFFFFFFFFFFFFD
:10033000FFFFFFFFFEFEFDFCFCFBFAF9F8F7F6F508
:10034000F3F2F0EFEDECEAE8E6E4E2E0DEDCDAD846
:10035000D5D3D1CECCC9C7C4C1BFBCB9B6B3B0AE7A
:10036000ABA8A5A29F9C9895928F8C89868300024A
:100370000406080A0C0E10121416181A1C1E20224D
:100380002426282A2C2E30323436383A3C3E40423D
:100390004446484A4C4E50525456585A5C5E60622D
:1003A0006466686A6C6E70727476787A7C7E80821D
:1003B0008486888A8C8E90929496989A9C9EA0A20D
:1003C000A4A6A8AAACAEB0B2B4B6B8BABCBEC0C2FD
:1003D000C4C6C8CACCCED0D2D4D6D8DADCDEE0E2ED
:1003E000E4E6E8EAECEEF0F2F4F6F8FAFCFEFFFDE3
:1003F000FBF9F7F5F3F1EFEFEBE9E7E5E3E1DFDD3B
:10040000DBD9D7D5D3D1CFCFCBC9C7C5C3C1BFBD2A
:10041000BBB9B7B5B3B1AFAFABA9A7A5A3A19F9D1A
:100420009B99979593918F8F8B89878583817F7D0A
:100430007B79777573716F6F6B69676563615F5DFA
:100440005B59575553514F4F4B49474543413F3DEA
:100450003B39373533312F2F2B29272523211F1DDA
:100460001B19171513110F0F0B09070503010001C5
:1004700002030405060708090A0B0C0D0E0F1011E4
:1004800012131415161718191A1B1C1D1E1F2021D4
:1004900022232425262728292A2B2C2D2E2F3031C4
:1004A00032333435363738393A3B3C3D3E3F4041B4
:1004B00042434445464748494A4B4C4D4E4F5051A4
:1004C00052535455565758595A5B5C5D5E5F606194
:1004D00062636465666768696A6B6C6D6E6F707184
:1004E00072737475767778797A7B7C7D7E7F808174
:1004F00082838485868788898A8B8C8D8E8F909164
:1005000092939495969798999A9B9C9D9E9FA0A153
:10051000A2A3A4A5A6A7A8A9AAABACADAEAFB0B143
:10052000B2B3B4B5B6B7B8B9BABBBCBDBEBFC0C133
:10053000C2C3C4C5C6C7C8C9CACBCCCDCECFD0D123
:10054000D2D3D4D5D6D7D8D9DADBDCDDDEDFE0E113
:10055000E2E3E4E5E6E7E8E9EAEBECEDEEEFF0F103
:10056000F2F3F4F5F6F7F8F9FAFBFCFDFEFF0000F4
:10057000000000000000000000000000000000007B
:10058000000000000000000000000000000000006B
:10059000000000000000000000000000000000005B
:1005A000000000000000000000000000000000004B
:1005B000000000000000000000000000000000003B
:1005C000000000000000000000000000000000002B
:1005D000000000000000000000000000000000001B
:1005E0000000000000000000000000000000FFFF0D
:1005F000FFFFFFFFFFFFFFFFFFFFFFFFFFFFFFFF0B
:10060000FFFFFFFFFFFFFFFFFFFFFFFFFFFFFFFFFA
:10061000FFFFFFFFFFFFFFFFFFFFFFFFFFFFFFFFEA
:10062000FFFFFFFFFFFFFFFFFFFFFFFFFFFFFFFFDA
:10063000FFFFFFFFFFFFFFFFFFFFFFFFFFFFFFFFCA
:10064000FFFFFFFFFFFFFFFFFFFFFFFFFFFFFFFFBA
:10065000FFFFFFFFFFFFFFFFFFFFFFFFFFFFFFFFAA
:10066000FFFFFFFFFFFFFFFFFFFFFFFFFFFF000098
:10067000000000000000000000000000000000007A
:10068000000000000000000000000000000000006A
:10069000000000000000000000000000000000005A
:1006A000000000000000000000000000000000004A
:1006B000000000000000000000000000000000003A
:1006C000000000000000000000000000000000002A
:1006D000000000000000000000000000000000001A
:1006E000000000000000000000000000000000000A
:1006F00000000000000000000000000000000000FA
:1007000000000000000000000000000000000000E9
:1007100000000000000000000000000000000000D9
:1007200000000000000000000000000000000000C9
:1007300000000000000000000000000000000000B9
:1007400000000000000000000000000000000000A9
:100750000000000000000000000000000000000099
:100760000000000000000000000000000000112454
:100770001FBECFEFD4E0DEBFCDBF11E0A0E0B1E0FF
:10078000E0E8FBE102C005900D92A032B107D9F775
:1007900021E0A0E2B1E001C01D92AF32B207E1F763
:1007A00002D0ECC92DCCCF93DF931F92CDB7DEB72B
:1007B0008AE290E02AE230E0F90120812C6FFC010E
:1007C00020831BD1B0D084E090E0909328018093E7
:1007D000270184E090E090932801809327012091E5
:1007E000290130912A01CE0101969F938F938CE1CC
:1007F00091E0892F8F938CE191E08F93832F8F93DA
:10080000822F8F9353D60F900F900F900F900F90D1
:100810000F908981082E000C990B092E000CAA0B51
:10082000BB0B42E450E025E130E0841B950B281718
:10083000390708F44FC0865E9F4F8F939F930895AA
:100840008CE48093240180EE9EE4A2E4B2E08093E5
:100850000A0190930B01A0930C01B0930D013BC0D2
:100860008DE48093240180EC9DE9A4E8B4E08093BA
:100870000A0190930B01A0930C01B0930D012BC0C2
:1008800088E48093240180EC94E1A7E9B6E18093A9
:100890000A0190930B01A0930C01B0930D011BC0B2
:1008A000109226011092250116C081E090E09093ED
:1008B0002601809325010FC082E090E090932601ED
:1008C0008093250108C083E090E0909326018093F7
:1008D000250101C000007DCF2091290130912A011E
:1008E000CE0101969F938F938CE191E0892F8F9396
:1008F0008CE191E08F93832F8F93822F8F93D6D5A6
:100900000F900F900F900F900F900F90898180356E
:1009100009F45FCF809125019091260190932801E1
:1009200080932701D9CFCF93DF93CDB7DEB785EC86
:1009300090E0FC01108284EC90E02FECFC0120831D
:1009400080EC90E020EC30E0F90120812D7FFC016B
:10095000208381EC90E028E1FC01208382EC90E090
:100960002EE0FC0120838EE091E090932A01809399
:1009700029018EE091E090932C0180932B010000DF
:10098000DF91CF910895CF93DF9300D01F92CDB721
:10099000DEB789837B836A83000080EC90E0FC01F2
:1009A0008081882F90E080729927892BB1F386ECA3
:1009B00090E02981FC01208380E090E00F900F906F
:1009C0000F90DF91CF910895CF93DF9300D0CDB7F3
:1009D000DEB79A838983000080EC90E0FC0180817F
:1009E0008823D4F786EC90E0FC018081882F90E08A
:1009F0000F900F90DF91CF910895CF93DF93CDB7F4
:100A0000DEB780E890E0FC01108281E890E0FC0114
:100A1000108284E890E0FC011182108281E890E06D
:100A200021E830E0F90120812860FC01208388E87A
:100A300090E02AE730E0FC01318320838FE690E0EC
:100A40002FE630E0F90120812260FC01208381E85B
:100A500090E021E830E0F90120812160FC01208351
:100A600078940000DF91CF9108951F920F9200902B
:100A70005F000F9211242F933F934F935F938F93B7
:100A80009F93AF93BF93EF93FF93CF93DF93CDB734
:100A9000DEB72BE230E08091270190912801880F8A
:100AA000991F80509F4FFC0140815181809120010E
:100AB00090912101A0912201B09123018B2F9927C0
:100AC000AA27BB27840F951FFC018491F90180831D
:100AD00020910A0130910B0140910C0150910D01C0
:100AE0008091200190912101A0912201B0912301D8
:100AF000820F931FA41FB51F8093200190932101A3
:100B0000A0932201B09323010000DF91CF91FF91C8
:100B1000EF91BF91AF919F918F915F914F913F91D5
:100B20002F910F9000925F000F901F901895A0E1F9
:100B3000B0E0ECE9F5E059C37C011B016A01FC015E
:100B400017821682838181FF2AC39E012F5F3F4F48
:100B50003901F7019381F10193FD859193FF819113
:100B60001F01882309F417C3853239F493FD859159
:100B700093FF81911F01853231F4B70190E05AD47F
:100B800056016501E6CF10E0512C912CFFE1F915DB
:100B9000D8F08B3279F038F4803279F08332A1F4D6
:100BA000F92DF0612EC08D3261F0803369F4292D6A
:100BB00021602DC0392D3260932E892D8460982EAE
:100BC0002AC0E92DE86015C097FC2DC020ED280F44
:100BD0002A3088F496FE06C03AE0139F200D1124B7
:100BE000122F19C08AE0589E200D1124522EE92D93
:100BF000E0629E2E10C08E3231F496FCCCC2F92DEC
:100C0000F0649F2E08C08C3621F4292D2068922E86
:100C100002C0883641F4F10193FD859193FF8191E3
:100C20001F018111B3CF9BEB980F933020F4992DC6
:100C30009061805E07C09BE9980F933008F059C11E
:100C4000992D9F7E96FF16E09F73992E853619F495
:100C50009064992E08C0863621F4392F3068932E7F
:100C600002C01111115097FE07C01C3350F44424E8
:100C70004394410E27E00BC0183038F027E017E00E
:100C800005C027E09CE3492E02C0212F412C5601CC
:100C900084E0A80EB11CF60160817181828193818C
:100CA000042DA301D9D26C01F981FC87F0FF02C0A9
:100CB000F3FF06C091FC06C092FE06C000E205C02C
:100CC0000DE203C00BE201C000E08C858C7019F0CE
:100CD000011143C280C297FE10C04C0CFC85F4FF8A
:100CE00004C08A81813309F44A94141474F528E00D
:100CF000241578F588E0482E2CC096FC2AC0812F58
:100D000090E08C159D059CF03CEFC3163FEFD30699
:100D100074F0892D8068982E0AC0E2E0F0E0EC0FB4
:100D2000FD1FE10FF11D8081803319F41150111165
:100D3000F4CF97FE0EC044244394410E812F90E0DF
:100D4000C816D9062CF41C1904C04424439401C0CD
:100D500010E097FE06C01C141D0434F4C601019671
:100D600005C085E090E002C081E090E001110196AD
:100D7000112331F0212F30E02F5F3F4F820F931F5F
:100D8000252D30E08217930714F4581A01C0512C16
:100D9000892D897041F4552031F0B70180E290E04F
:100DA00049D35A94F8CF002321F0B701802F90E067
:100DB00041D393FC08C0552031F0B70180E390E0A7
:100DC00039D35A94F8CF97FE4AC04601D7FE02C0E5
:100DD000812C912CC60188199909F301E80FF91F9C
:100DE000FE87ED87960124193109388B2F87012F53
:100DF00010E01195019511093FEF8316930621F438
:100E0000B7018EE290E016D3C814D9044CF08F8558
:100E100098898815990524F4ED85FE85818101C0A6
:100E200080E3F1E08F1A91082D853E852F5F3F4FBB
:100E30003E872D878016910624F0B70190E0FAD204
:100E4000DBCFC814D90441F49A81963320F495334A
:100E500019F43C8534FF81E3B70190E048C08A81F2
:100E6000813319F09C859F7E9C87B70190E0E2D288
:100E7000111105C094FC16C085E690E015C0B701BD
:100E80008EE290E0D7D21E5F82E001E0080FF3010E
:100E9000E80FF11D8081B70190E0CCD2802F0113C3
:100EA000F4CFE8CF85E490E0B701C4D2D7FC06C008
:100EB000C114D10441F4EC85E4FF05C0D194C19480
:100EC000D1088DE201C08BE2B70190E0B3D280E39C
:100ED0002AE0C216D1042CF08F5FFAE0CF1AD108B5
:100EE000F7CFB70190E0A6D2B701C601C096A2D253
:100EF00049C1833631F0833779F0833509F052C028
:100F00001FC0560132E0A30EB11CF6018081898317
:100F100001E010E0630111C05601F2E0AF0EB11C18
:100F2000F601C080D18096FE03C0612F70E002C040
:100F30006FEF7FEFC60173D28C01F92DFF7713C0DD
:100F4000560122E0A20EB11CF601C080D18096FEAF
:100F500003C0612F70E002C06FEF7FEFC60154D273
:100F60008C01F92DF0689F2EF3FD18C0852D90E0BF
:100F70000817190798F4B70180E290E05BD25A9401
:100F8000F5CFF60197FC859197FE81916F01B7012E
:100F900090E050D251105A940150110901151105D9
:100FA00081F7F0C0843611F0893659F5560197FE65
:100FB00009C024E0A20EB11CF6016081718182811A
:100FC00093810AC0F2E0AF0EB11CF601608171811D
:100FD000072E000C880B990BF92DFF769F2E97FF9B
:100FE00009C090958095709561957F4F8F4F9F4F69
:100FF000F0689F2E2AE030E0A30167D2C82EC61801
:101000003EC0092D853721F40F7E2AE030E01DC057
:10101000097F8F3691F018F4883559F0BCC08037BD
:1010200019F0883711F0B7C0006104FF09C00460EF
:1010300007C094FE08C0066006C028E030E005C086
:1010400020E130E002C020E132E0560107FF09C094
:1010500084E0A80EB11CF6016081718182819381C8
:1010600008C0F2E0AF0EB11CF6016081718180E032
:1010700090E0A3012AD2C82EC6180F77902E96FEB4
:101080000BC0092D0E7FC11650F494FE0AC092FCCD
:1010900008C0092D0E7E05C0DC2C092D03C0DC2CF8
:1010A00001C0D12E04FF0DC0FE01EC0DF11D8081A9
:1010B000803311F4097E09C002FF06C0D394D39493
:1010C00004C0802F867809F0D39403FD10C000FF80
:1010D00006C01C2DD51478F4150D1D190CC0D5149F
:1010E00050F4B70180E290E0A5D1D394F8CFD514A5
:1010F00010F45D1801C0512C04FF0FC0B70180E34C
:1011000090E098D102FF16C001FD03C088E790E08F
:1011100002C088E590E0B7010CC0802F867851F0BE
:1011200001FF02C08BE201C080E207FD8DE2B70142
:1011300090E080D1C11630F4B70180E390E07AD11D
:101140001150F8CFCA94F301EC0DF11D8081B70165
:1011500090E070D1C110F6CF15C0F4E0F51550F550
:1011600084E0581A93FE1EC0011125C02C8523FF70
:1011700027C000E610E0392D3071932EF8018491DC
:10118000811121C0552009F4FCCCB70180E290E028
:1011900051D15A94F7CFF7018681978123C08FEF01
:1011A0009FEF20C0B70180E290E044D15A945110E3
:1011B000F9CFDACF512CB701802F90E03BD1D6CFB9
:1011C00004E610E0D8CF91108052B70190E032D100
:1011D0000F5F1F4FD3CF23E0251510F483E0C1CF5D
:1011E000512CC4CF6096E2E11CC02F923F924F92E7
:1011F0005F926F927F928F929F92AF92BF92CF92A7
:10120000DF92EF92FF920F931F93CF93DF93CDB7AF
:10121000DEB7CA1BDB0B0FB6F894DEBF0FBECDBF27
:1012200009942A88398848885F846E847D848C84F8
:101230009B84AA84B984C884DF80EE80FD800C8101
:101240001B81AA81B981CE0FD11D0FB6F894DEBFE4
:101250000FBECDBFED010895283008F027E03327F9
:10126000DA01990F311D87FD9160009661057105C6
:1012700039F432602E5F3D9330E32A95E1F708950B
:101280009F3F30F080387105610509F03C5F3C5F9D
:101290003D93913008F08068911DDF93CF931F93A9
:1012A0000F93FF92EF92192F987F9695E92F9695BD
:1012B0009695E90FFF27EE53FF4F99273327EE242A
:1012C000FF24A701E70105900894079428F4360F3E
:1012D000E71EF81E491F511D660F771F881F991FB3
:1012E0000694A1F70590079428F4E70EF81E491F0D
:1012F000561FC11D770F881F991F661F0694A1F7FF
:101300000590079428F4F80E491F561FC71FD11DDA
:10131000880F991F661F771F0694A1F70590079401
:1013200020F4490F561FC71FD81F990F661F771F3C
:10133000881F0694A9F784911095177041F0D695EF
:10134000C79557954795F794E7941A95C1F7E8E63E
:10135000F0E06894159015913591659195910590FF
:101360007FE27395E118F10A430B560BC90BD009C4
:10137000C0F7E10CF11E431F561FC91FD01D7EF49C
:10138000703311F48A95E6CFE894015030F0080FDD
:101390000AF40027021708F4202F2395022F7A332E
:1013A00028F079E37D932A95E9F710C07D932A957B
:1013B00089F6069497956795379517951794E118D0
:1013C000F10A430B560BC90BD00998F023957E9177
:1013D00073957A3308F070E37C932013B8F77E910D
:1013E00070617D9330F0839571E37D9370E32A956E
:1013F000E1F71124EF90FF900F911F91CF91DF91B2
:10140000992787FD90950895FC01059061507040E3
:101410000110D8F7809590958E0F9F1F0895FC01BD
:101420006150704001900110D8F7809590958E0F13
:101430009F1F08950F931F93CF93DF93FB01238189
:1014400021FD03C08FEF9FEF2CC022FF16C0468105
:101450005781248135814217530744F4A081B1811B
:101460009D012F5F3F4F318320838C9326813781ED
:101470002F5F3F4F3783268314C08B01EC01FB01A4
:101480000084F185E02D0995892BE1F6D8011696A7
:101490008D919C911797019617969C938E93169712
:1014A000CE01DF91CF911F910F910895A0E0B0E0A0
:1014B000EBE5FAE0AACEAE01475F5F4F6F8178851A
:1014C0008D819E81EDD1E2E0BCCEFA01AA272830C1
:1014D00051F1203181F1E8946F936E7F6E5F7F4F01
:1014E0008F4F9F4FAF4FB1E03ED0B4E03CD0670F7D
:1014F000781F891F9A1FA11D680F791F8A1F911DD0
:10150000A11D6A0F711D811D911DA11D20D009F41F
:1015100068943F912AE0269F11243019305D319361
:10152000DEF6CF010895462F4770405D4193B3E04A
:101530000FD0C9F7F6CF462F4F70405D4A3318F0F1
:10154000495D31FD4052419302D0A9F7EACFB4E0A2
:10155000A6959795879577956795BA95C9F700975A
:101560006105710508959B01AC010A2E06945795FB
:10157000479537952795BA95C9F7620F731F841F52
:10158000951FA01D089520FD09C0FC0123FD05C085
:1015900022FF02C07383628351834083089544FD18
:1015A00017C046FD17C0AB01BC01DA01FB01AA0F51
:1015B000BB1FEE1FFF1F1094D1F74A0F5B1F6E1F5A
:1015C0007F1FCB01BA01660F771F881F991F09C0C3
:1015D00033E001C034E0660F771F881F991F315038
:1015E000D1F7620F711D811D911D08950F931F93F7
:1015F000CF93DF938C01C80167D2EC0197FD06C041
:1016000050D2892BC1F7B801CE019CD2CE01DF9117
:10161000CF911F910F9108958F929F92AF92BF9299
:10162000EF92FF920F931F93CF93DF938C01D62FEE
:101630007A01B22E49D29C0133272B32310531F089
:101640002D32310559F48B2D8068B82ED15011F40C
:1016500080E061C0C80138D297FDFACFCB2DCD7F95
:101660002B2D2073F9F48033E9F4AA24AA94AD0E4B
:1016700009F43EC0C80128D297FD3AC09C012F7DD5
:1016800033272835310541F4C264D25089F1C801AD
:101690001BD297FF07C02CC0B6FE02C0C26001C0BB
:1016A000C261DA2D812C912C540120ED280F2830B5
:1016B00078F0C4FF03C0B80145D217C02A3040F00B
:1016C000C6FFF9CF2F7D3FEE320F3630A0F72750FF
:1016D0004C2FC501B40163DF4B015C01C260D150E6
:1016E00051F0C801F1D197FFE0CFC1FD04C0B0CFE8
:1016F000812C912C5401C7FF08C0B094A094909401
:101700008094811C911CA11CB11C2C2FB501A4013B
:10171000C70139DF81E0DF91CF911F910F91FF90D9
:10172000EF90BF90AF909F908F900895A0E2B0E0AF
:10173000EBE9FBE05DCD5C01962E7A01F9018E01AB
:101740000F5F1F4F680180E2D8011D928A95E9F76B
:10175000D50113968C9080E090E0612C712C30E0E4
:1017600061E070E083FC259183FE21918F01522E70
:10177000211103C080E090E090C02E3511F4009755
:1017800051F1432F50E0481759073CF42D3559F1DA
:101790002D3219F4772009F103C0772009F468C0CD
:1017A000452D469546954695D601A40FB11D452D6C
:1017B00047708B0102C0000F111F4A95E2F7A80184
:1017C0005C91452B4C93651459F0561410F45394C6
:1017D000E7CF5A94E5CF31E004C07724739401C079
:1017E000712C0196BFCF772019F08E8180628E8395
:1017F000311103C08824839417C0F6019E012F5D28
:101800003F4F8081809581932E173F07D1F7F2CF0C
:10181000E114F10429F0D7018C93F70131967F018F
:101820009A94812C9920E9F0C5014ED197FD17C0FB
:10183000FC01FF2723E0F595E7952A95E1F7EC0DEC
:10184000FD1D208130E0AC014770552702C0359561
:1018500027954A95E2F720FDDBCFB50173D18110C2
:1018600089CFE114F10411F0D7011C92C80115C011
:10187000422F469546954695D601A40FB11D422F9D
:1018800047708B0102C0000F111F4A95E2F7A801B3
:101890005C91452B4C93622EA4CFA096EFE0C4CC74
:1018A000A0E0B0E0E5E5FCE0A3CC6C01EB015A015F
:1018B000FC0117821682512CF601E380FE01E3FC45
:1018C0008591E3FE8191182FEF01882309F4E0C090
:1018D00090E0E7D0892B19F0C60188DEEDCF1532F4
:1018E00041F4FE01E3FC1591E3FE1191EF01153285
:1018F00071F4C601E9D097FDC9C0412F50E09C01A9
:10190000332724173507C1F2B6011CD1C1C01A32E2
:1019100039F4E3FC1591E3FE1191EF0101E001C000
:1019200000E0F12C20ED210F2A3078F402606F2DB9
:1019300070E080E090E040E232DEF62EFE01E3FC53
:101940001591E3FE1191EF01EDCF01FF03C0F110FE
:1019500003C09EC0FF24FA94183619F01C3651F0CB
:1019600010C0FE01E3FC1591E3FE1191EF01183662
:1019700041F408600460FE01E3FC1591E3FE11915F
:10198000EF01112309F484C0612F70E082E691E039
:1019900090D0892B09F47CC000FD07C0F501808040
:1019A0009180C50102965C0102C0812C912C1E36EB
:1019B00049F4F6014681578160E070E0202FC401B0
:1019C000E2DD7ACF1336A1F401FD02C0FF24F394C7
:1019D000C6017AD097FD5AC08114910429F0F40110
:1019E0008083C40101964C01FA94F110F1CF4AC0F2
:1019F0001B3551F49E01A4016F2DC60197DEEC0149
:101A0000892B09F03FC039C0C601F0DD97FD3EC00B
:101A10001F3649F128F4143621F1193639F125C061
:101A2000133771F01537E9F020C08114910429F0C3
:101A3000F4016082C40101964C01FA94FF2059F030
:101A4000C60142D03C0197FD06C02BD0892B69F31B
:101A5000B601C30177D081149104A1F0F401108282
:101A600011C0006203C0006101C00064202FA40106
:101A70006F2DC601D1DD811105C0F6018381807310
:101A800029F406C000FD18CF539416CF552019F045
:101A9000852D90E002C08FEF9FEFCDB7DEB7EFE06E
:101AA000C3CB911168C0803219F089508550D0F7AE
:101AB0000895FC010590061621F00020D9F7C00119
:101AC00008953197CF010895CF93DF93EC012B81D7
:101AD00020FF33C026FF0AC02F7B2B838E819F817E
:101AE00001969F838E838A8190E029C022FF0FC0D8
:101AF000E881F9818081082E000C990B009719F478
:101B000020622B831AC03196F983E8830EC0EA85E0
:101B1000FB85099597FF09C02B81019611F080E2A2
:101B200001C080E1822B8B8308C02E813F812F5F13
:101B30003F4F3F832E83992702C08FEF9FEFDF91A6
:101B4000CF910895FB01238120FF12C026FD10C014
:101B50008F3F3FEF930761F082832F7D20642383C3
:101B600026813781215031093783268399270895AB
:101B70008FEF9FEF0895992788270895F894FFCF56
:101B80006E016E036E046E056E060000010000001B
:101B9000000300000000C304E4040000256300000B
:00000001FF
